:100B8800A2AF9200C2AF75C7AA75C755439604A213
:100B98000092AFA2AF9200C2AF75C7AA75C75553EE
:100BA80096FDA20092AFE597640160FAA2AF9200A9
:100BB800C2AF75C7AA75C7555397DFA20092AF8019
:010BC800FE2E
:100AA7008F0B8E0A8D098C08538EF7438901D28CE0
:100AB700E4FFFEFDFCAB0BAA0AA909A808C31208AC
:100AC700CE6025758A7E758CFF308DFDC28DE50B56
:100AD70024FFF50BE50A34FFF50AE50934FFF509AC
:0B0AE700E50834FFF50880C8C28C222F
:100AF2008F0F8E0E8D0D8C0C538EF7438901D28C85
:100B0200E4FFFEFDFCAB0FAA0EA90DA80CC3120850
:100B1200CE6025758ACA758CFA308DFDC28DE50FBF
:100B220024FFF50FE50E34FFF50EE50D34FFF50D4C
:0B0B3200E50C34FFF50C80C8C28C22DB
:100B3D008F138E128D118C10538EEF438910D28E20
:100B4D00E4FFFEFDFCAB13AA12A911A810C31208F5
:100B5D00CE6025758BEA758DCB308FFDC28FE51379
:100B6D0024FFF513E51234FFF512E51134FFF511ED
:0B0B7D00E51034FFF51080C8C28E2286
:1009BF008F178E168D158C1453C9BF53C9DF43C9BA
:1009CF0010D2CAE4FFFEFDFCAB17AA16A915A81496
:1009DF00C31208CE602575CC3075CDF830CFFDC26F
:1009EF00CFE51724FFF517E51634FFF516E5153497
:0E09FF00FFF515E51434FFF51480C8C2CA22B6
:100A0D008F1B8E1A8D198C1875C40743C408E4FF0B
:100A1D00FEFDFCAB1BAA1AA919A818C31208CE60BB
:100A2D002875C52C75C6CFE5C430E4FB53C4EFE57E
:100A3D001B24FFF51BE51A34FFF51AE51934FFF5F4
:0D0A4D0019E51834FFF51880C553C4F722D1
:100A5A008F1F8E1E8D1D8C1C75C40743C408E4FFAE
:100A6A00FEFDFCAB1FAA1EA91DA81CC31208CE605E
:100A7A002875C5D875C6FFE5C430E4FB53C4EFE555
:100A8A001F24FFF51FE51E34FFF51EE51D34FFF593
:0D0A9A001DE51C34FFF51C80C553C4F72278
:100BC90053B1BF53B2BF53B17F53B27F75985043EE
:100BD9008920438780438E1053C4DFAB07AA06A937
:100BE90005A8047F407E427D0F7C0012083CEF047B
:090BF900F404F58DD28ED299228C
:1008F2008F248E238D228C2153B1BF53B2BF53B1AB
:100902007F53B27F75985043878053C4F843C42005
:10091200AB24AA23A922A8217F407E427D0F7C001E
:1009220012083CC374FF9FFF74FF9EFEE49DFDE42A
:100932009CFC78081208DF8FC6AB24AA23A922A840
:10094200217F407E427D0F7C0012083CC374FF9FD2
:09095200FF8FC543C408D29922AD
:070C2E003098FDAF99C29858
:010C3500229C
:080C3600C2998F993099FD224B
:10095B008F288E278D268C2553B1FB53B2FB53B3B7
:10096B00BF53B4BF75F85075C40853C4DFAB28AA86
:10097B0027A926A8257F407E427D0F7C0012083CCC
:10098B00C374FF9FFF74FF9EFEE49DFDE49CFC7807
:10099B00081208DF8FC6AB28AA27A926A8257F40F7
:1009AB007E427D0F7C0012083CC374FF9FFF8FC5F6
:0409BB0043C4082207
:070C3E0030F8FDAF9AC2F887
:010C4500228C
:080C4600C2F98F9A30F9FD227A
:03000000020C02ED
:100C020075C7AA75C75575FD5A75C7AA75C75575B3
:100C1200FDA5787FE4F6D8FD9000007FFF7E03E417
:0C0C2200F0A3DFFCDEFA758128020B88CD
:1008000075F008758200EF2FFFEE33FECD33CDCCAF
:1008100033CCC58233C5829BED9AEC99E582984032
:100820000CF582EE9BFEED9AFDEC99FC0FD5F0D60F
:10083000E4CEFBE4CDFAE4CCF9A88222B800C1B939
:100840000059BA002DEC8BF084CFCECDFCE5F0CB77
:10085000F97818EF2FFFEE33FEED33FDEC33FCEBB0
:1008600033FB10D703994004EB99FB0FD8E5E4F96B
:10087000FA227818EF2FFFEE33FEED33FDEC33FC58
:10088000C933C910D7059BE99A4007EC9BFCE99A4C
:10089000F90FD8E0E4C9FAE4CCFB2275F010EF2F91
:1008A000FFEE33FEED33FDCC33CCC833C810D70791
:1008B0009BEC9AE899400AED9BFDEC9AFCE899F8CC
:0E08C0000FD5F0DAE4CDFBE4CCFAE4C8F9225F
:1008CE00EB9FF5F0EA9E42F0E99D42F0E89C45F080
:0108DE0022F7
:1008DF00E8600FECC313FCED13FDEE13FEEF13FFF7
:0308EF00D8F1221B
:00000001FF
